{
  "_format": "hh-sol-artifact-1",
  "contractName": "Microcredito",
  "sourceName": "contracts/Microcredito.sol",
  "abi": [
    {
      "anonymous": false,
      "inputs": [
        {
          "indexed": false,
          "internalType": "uint256",
          "name": "id",
          "type": "uint256"
        },
        {
          "indexed": false,
          "internalType": "address",
          "name": "financiador",
          "type": "address"
        },
        {
          "indexed": false,
          "internalType": "uint256",
          "name": "total",
          "type": "uint256"
        },
        {
          "indexed": false,
          "internalType": "uint256",
          "name": "timestamp",
          "type": "uint256"
        }
      ],
      "name": "PrestamoFinanciado",
      "type": "event"
    },
    {
      "anonymous": false,
      "inputs": [
        {
          "indexed": false,
          "internalType": "uint256",
          "name": "id",
          "type": "uint256"
        },
        {
          "indexed": false,
          "internalType": "address",
          "name": "solicitante",
          "type": "address"
        },
        {
          "indexed": false,
          "internalType": "uint256",
          "name": "totalPagado",
          "type": "uint256"
        },
        {
          "indexed": false,
          "internalType": "uint256",
          "name": "timestamp",
          "type": "uint256"
        }
      ],
      "name": "PrestamoPagado",
      "type": "event"
    },
    {
      "anonymous": false,
      "inputs": [
        {
          "indexed": false,
          "internalType": "uint256",
          "name": "id",
          "type": "uint256"
        },
        {
          "indexed": false,
          "internalType": "address",
          "name": "solicitante",
          "type": "address"
        },
        {
          "indexed": false,
          "internalType": "uint256",
          "name": "montoPrincipal",
          "type": "uint256"
        },
        {
          "indexed": false,
          "internalType": "uint256",
          "name": "interes",
          "type": "uint256"
        },
        {
          "indexed": false,
          "internalType": "uint256",
          "name": "tiempoVencimiento",
          "type": "uint256"
        }
      ],
      "name": "PrestamoSolicitado",
      "type": "event"
    },
    {
      "anonymous": false,
      "inputs": [
        {
          "indexed": false,
          "internalType": "address",
          "name": "usuario",
          "type": "address"
        },
        {
          "indexed": false,
          "internalType": "uint256",
          "name": "nuevaReputacion",
          "type": "uint256"
        }
      ],
      "name": "ReputacionActualizada",
      "type": "event"
    },
    {
      "inputs": [
        {
          "internalType": "uint256",
          "name": "id",
          "type": "uint256"
        }
      ],
      "name": "estaVencido",
      "outputs": [
        {
          "internalType": "bool",
          "name": "",
          "type": "bool"
        }
      ],
      "stateMutability": "view",
      "type": "function"
    },
    {
      "inputs": [
        {
          "internalType": "uint256",
          "name": "id",
          "type": "uint256"
        }
      ],
      "name": "financiarPrestamo",
      "outputs": [],
      "stateMutability": "payable",
      "type": "function"
    },
    {
      "inputs": [],
      "name": "obtenerPrestamos",
      "outputs": [
        {
          "components": [
            {
              "internalType": "uint256",
              "name": "id",
              "type": "uint256"
            },
            {
              "internalType": "address",
              "name": "solicitante",
              "type": "address"
            },
            {
              "internalType": "uint256",
              "name": "montoPrincipal",
              "type": "uint256"
            },
            {
              "internalType": "uint256",
              "name": "interes",
              "type": "uint256"
            },
            {
              "internalType": "uint256",
              "name": "tiempoInicio",
              "type": "uint256"
            },
            {
              "internalType": "uint256",
              "name": "tiempoVencimiento",
              "type": "uint256"
            },
            {
              "internalType": "bool",
              "name": "financiado",
              "type": "bool"
            },
            {
              "internalType": "bool",
              "name": "pagado",
              "type": "bool"
            },
            {
              "internalType": "address",
              "name": "financiador",
              "type": "address"
            }
          ],
          "internalType": "struct Microcredito.Prestamo[]",
          "name": "",
          "type": "tuple[]"
        }
      ],
      "stateMutability": "view",
      "type": "function"
    },
    {
      "inputs": [
        {
          "internalType": "uint256",
          "name": "id",
          "type": "uint256"
        }
      ],
      "name": "pagarPrestamo",
      "outputs": [],
      "stateMutability": "payable",
      "type": "function"
    },
    {
      "inputs": [
        {
          "internalType": "uint256",
          "name": "",
          "type": "uint256"
        }
      ],
      "name": "prestamos",
      "outputs": [
        {
          "internalType": "uint256",
          "name": "id",
          "type": "uint256"
        },
        {
          "internalType": "address",
          "name": "solicitante",
          "type": "address"
        },
        {
          "internalType": "uint256",
          "name": "montoPrincipal",
          "type": "uint256"
        },
        {
          "internalType": "uint256",
          "name": "interes",
          "type": "uint256"
        },
        {
          "internalType": "uint256",
          "name": "tiempoInicio",
          "type": "uint256"
        },
        {
          "internalType": "uint256",
          "name": "tiempoVencimiento",
          "type": "uint256"
        },
        {
          "internalType": "bool",
          "name": "financiado",
          "type": "bool"
        },
        {
          "internalType": "bool",
          "name": "pagado",
          "type": "bool"
        },
        {
          "internalType": "address",
          "name": "financiador",
          "type": "address"
        }
      ],
      "stateMutability": "view",
      "type": "function"
    },
    {
      "inputs": [
        {
          "internalType": "address",
          "name": "usuario",
          "type": "address"
        }
      ],
      "name": "prestamosFinanciadosPor",
      "outputs": [
        {
          "components": [
            {
              "internalType": "uint256",
              "name": "id",
              "type": "uint256"
            },
            {
              "internalType": "address",
              "name": "solicitante",
              "type": "address"
            },
            {
              "internalType": "uint256",
              "name": "montoPrincipal",
              "type": "uint256"
            },
            {
              "internalType": "uint256",
              "name": "interes",
              "type": "uint256"
            },
            {
              "internalType": "uint256",
              "name": "tiempoInicio",
              "type": "uint256"
            },
            {
              "internalType": "uint256",
              "name": "tiempoVencimiento",
              "type": "uint256"
            },
            {
              "internalType": "bool",
              "name": "financiado",
              "type": "bool"
            },
            {
              "internalType": "bool",
              "name": "pagado",
              "type": "bool"
            },
            {
              "internalType": "address",
              "name": "financiador",
              "type": "address"
            }
          ],
          "internalType": "struct Microcredito.Prestamo[]",
          "name": "",
          "type": "tuple[]"
        }
      ],
      "stateMutability": "view",
      "type": "function"
    },
    {
      "inputs": [
        {
          "internalType": "address",
          "name": "usuario",
          "type": "address"
        }
      ],
      "name": "prestamosPorSolicitante",
      "outputs": [
        {
          "components": [
            {
              "internalType": "uint256",
              "name": "id",
              "type": "uint256"
            },
            {
              "internalType": "address",
              "name": "solicitante",
              "type": "address"
            },
            {
              "internalType": "uint256",
              "name": "montoPrincipal",
              "type": "uint256"
            },
            {
              "internalType": "uint256",
              "name": "interes",
              "type": "uint256"
            },
            {
              "internalType": "uint256",
              "name": "tiempoInicio",
              "type": "uint256"
            },
            {
              "internalType": "uint256",
              "name": "tiempoVencimiento",
              "type": "uint256"
            },
            {
              "internalType": "bool",
              "name": "financiado",
              "type": "bool"
            },
            {
              "internalType": "bool",
              "name": "pagado",
              "type": "bool"
            },
            {
              "internalType": "address",
              "name": "financiador",
              "type": "address"
            }
          ],
          "internalType": "struct Microcredito.Prestamo[]",
          "name": "",
          "type": "tuple[]"
        }
      ],
      "stateMutability": "view",
      "type": "function"
    },
    {
      "inputs": [
        {
          "internalType": "address",
          "name": "",
          "type": "address"
        }
      ],
      "name": "reputacion",
      "outputs": [
        {
          "internalType": "uint256",
          "name": "",
          "type": "uint256"
        }
      ],
      "stateMutability": "view",
      "type": "function"
    },
    {
      "inputs": [
        {
          "internalType": "uint256",
          "name": "monto",
          "type": "uint256"
        },
        {
          "internalType": "uint256",
          "name": "plazoDias",
          "type": "uint256"
        }
      ],
      "name": "solicitarPrestamo",
      "outputs": [],
      "stateMutability": "nonpayable",
      "type": "function"
    }
  ],
  "bytecode": "0x608060405234801561001057600080fd5b50612060806100206000396000f3fe6080604052600436106100865760003560e01c8063a1d1b9ef11610059578063a1d1b9ef14610173578063b535c24b1461019e578063b6a40288146101ba578063c8ac892d146101f7578063dfe88c9c1461023457610086565b8063209aa1001461008b578063248c5cdc146100b457806330f31dd8146100f15780633deb97861461012e575b600080fd5b34801561009757600080fd5b506100b260048036038101906100ad9190611637565b610250565b005b3480156100c057600080fd5b506100db60048036038101906100d691906116d5565b61052f565b6040516100e891906118a2565b60405180910390f35b3480156100fd57600080fd5b50610118600480360381019061011391906116d5565b61084c565b60405161012591906118a2565b60405180910390f35b34801561013a57600080fd5b50610155600480360381019061015091906118c4565b610b69565b60405161016a9998979695949392919061191e565b60405180910390f35b34801561017f57600080fd5b50610188610c21565b60405161019591906118a2565b60405180910390f35b6101b860048036038101906101b391906118c4565b610d95565b005b3480156101c657600080fd5b506101e160048036038101906101dc91906116d5565b610fb4565b6040516101ee91906119ab565b60405180910390f35b34801561020357600080fd5b5061021e600480360381019061021991906118c4565b610fcc565b60405161022b91906119c6565b60405180910390f35b61024e600480360381019061024991906118c4565b611044565b005b60008211610293576040517f08c379a000000000000000000000000000000000000000000000000000000000815260040161028a90611a3e565b60405180910390fd5b600081116102d6576040517f08c379a00000000000000000000000000000000000000000000000000000000081526004016102cd90611aaa565b60405180910390fd5b600067016345785d8a00009050600062015180836102f49190611af9565b905060006a1a1601fc4ea7109e0000008284876103119190611af9565b61031b9190611af9565b6103259190611b6a565b905060004290506000838261033a9190611b9b565b905060008080549050905060006040518061012001604052808381526020013373ffffffffffffffffffffffffffffffffffffffff1681526020018a8152602001868152602001858152602001848152602001600015158152602001600015158152602001600073ffffffffffffffffffffffffffffffffffffffff1681525090806001815401808255809150506001900390600052602060002090600702016000909190919091506000820151816000015560208201518160010160006101000a81548173ffffffffffffffffffffffffffffffffffffffff021916908373ffffffffffffffffffffffffffffffffffffffff16021790555060408201518160020155606082015181600301556080820151816004015560a0820151816005015560c08201518160060160006101000a81548160ff02191690831515021790555060e08201518160060160016101000a81548160ff0219169083151502179055506101008201518160060160026101000a81548173ffffffffffffffffffffffffffffffffffffffff021916908373ffffffffffffffffffffffffffffffffffffffff16021790555050507f45b3d4063230b6d52cef56def1fa16c3f345c680a12ce1cc82e7489b7eb8a17781338a878660405161051d959493929190611bcf565b60405180910390a15050505050505050565b60606000808054905090506000805b828110156105e0578473ffffffffffffffffffffffffffffffffffffffff166000828154811061057157610570611c22565b5b906000526020600020906007020160010160009054906101000a900473ffffffffffffffffffffffffffffffffffffffff1673ffffffffffffffffffffffffffffffffffffffff16036105cd5781806105c990611c51565b9250505b80806105d890611c51565b91505061053e565b5060008167ffffffffffffffff8111156105fd576105fc611c99565b5b60405190808252806020026020018201604052801561063657816020015b610623611580565b81526020019060019003908161061b5790505b5090506000805b8481101561083f578673ffffffffffffffffffffffffffffffffffffffff16600082815481106106705761066f611c22565b5b906000526020600020906007020160010160009054906101000a900473ffffffffffffffffffffffffffffffffffffffff1673ffffffffffffffffffffffffffffffffffffffff160361082c57600081815481106106d1576106d0611c22565b5b906000526020600020906007020160405180610120016040529081600082015481526020016001820160009054906101000a900473ffffffffffffffffffffffffffffffffffffffff1673ffffffffffffffffffffffffffffffffffffffff1673ffffffffffffffffffffffffffffffffffffffff168152602001600282015481526020016003820154815260200160048201548152602001600582015481526020016006820160009054906101000a900460ff161515151581526020016006820160019054906101000a900460ff161515151581526020016006820160029054906101000a900473ffffffffffffffffffffffffffffffffffffffff1673ffffffffffffffffffffffffffffffffffffffff1673ffffffffffffffffffffffffffffffffffffffff168152505083838151811061081257610811611c22565b5b6020026020010181905250818061082890611c51565b9250505b808061083790611c51565b91505061063d565b5081945050505050919050565b60606000808054905090506000805b828110156108fd578473ffffffffffffffffffffffffffffffffffffffff166000828154811061088e5761088d611c22565b5b906000526020600020906007020160060160029054906101000a900473ffffffffffffffffffffffffffffffffffffffff1673ffffffffffffffffffffffffffffffffffffffff16036108ea5781806108e690611c51565b9250505b80806108f590611c51565b91505061085b565b5060008167ffffffffffffffff81111561091a57610919611c99565b5b60405190808252806020026020018201604052801561095357816020015b610940611580565b8152602001906001900390816109385790505b5090506000805b84811015610b5c578673ffffffffffffffffffffffffffffffffffffffff166000828154811061098d5761098c611c22565b5b906000526020600020906007020160060160029054906101000a900473ffffffffffffffffffffffffffffffffffffffff1673ffffffffffffffffffffffffffffffffffffffff1603610b4957600081815481106109ee576109ed611c22565b5b906000526020600020906007020160405180610120016040529081600082015481526020016001820160009054906101000a900473ffffffffffffffffffffffffffffffffffffffff1673ffffffffffffffffffffffffffffffffffffffff1673ffffffffffffffffffffffffffffffffffffffff168152602001600282015481526020016003820154815260200160048201548152602001600582015481526020016006820160009054906101000a900460ff161515151581526020016006820160019054906101000a900460ff161515151581526020016006820160029054906101000a900473ffffffffffffffffffffffffffffffffffffffff1673ffffffffffffffffffffffffffffffffffffffff1673ffffffffffffffffffffffffffffffffffffffff1681525050838381518110610b2f57610b2e611c22565b5b60200260200101819052508180610b4590611c51565b9250505b8080610b5490611c51565b91505061095a565b5081945050505050919050565b60008181548110610b7957600080fd5b90600052602060002090600702016000915090508060000154908060010160009054906101000a900473ffffffffffffffffffffffffffffffffffffffff16908060020154908060030154908060040154908060050154908060060160009054906101000a900460ff16908060060160019054906101000a900460ff16908060060160029054906101000a900473ffffffffffffffffffffffffffffffffffffffff16905089565b60606000805480602002602001604051908101604052809291908181526020016000905b82821015610d8c578382906000526020600020906007020160405180610120016040529081600082015481526020016001820160009054906101000a900473ffffffffffffffffffffffffffffffffffffffff1673ffffffffffffffffffffffffffffffffffffffff1673ffffffffffffffffffffffffffffffffffffffff168152602001600282015481526020016003820154815260200160048201548152602001600582015481526020016006820160009054906101000a900460ff161515151581526020016006820160019054906101000a900460ff161515151581526020016006820160029054906101000a900473ffffffffffffffffffffffffffffffffffffffff1673ffffffffffffffffffffffffffffffffffffffff1673ffffffffffffffffffffffffffffffffffffffff168152505081526020019060010190610c45565b50505050905090565b6000805490508110610ddc576040517f08c379a0000000000000000000000000000000000000000000000000000000008152600401610dd390611d14565b60405180910390fd5b6000808281548110610df157610df0611c22565b5b906000526020600020906007020190508060060160009054906101000a900460ff1615610e53576040517f08c379a0000000000000000000000000000000000000000000000000000000008152600401610e4a90611d80565b60405180910390fd5b80600301548160020154610e679190611b9b565b3414610ea8576040517f08c379a0000000000000000000000000000000000000000000000000000000008152600401610e9f90611dec565b60405180910390fd5b8060010160009054906101000a900473ffffffffffffffffffffffffffffffffffffffff1673ffffffffffffffffffffffffffffffffffffffff166108fc349081150290604051600060405180830381858888f19350505050158015610f12573d6000803e3d6000fd5b5060018160060160006101000a81548160ff021916908315150217905550338160060160026101000a81548173ffffffffffffffffffffffffffffffffffffffff021916908373ffffffffffffffffffffffffffffffffffffffff1602179055507fe0270b80424d8d88ee716d85b5a05d48a3d455172a47c0ef10566a3d5ce1169e82333442604051610fa89493929190611e0c565b60405180910390a15050565b60016020528060005260406000206000915090505481565b600080805490508210611014576040517f08c379a000000000000000000000000000000000000000000000000000000000815260040161100b90611d14565b60405180910390fd5b6000828154811061102857611027611c22565b5b9060005260206000209060070201600501544210159050919050565b600080549050811061108b576040517f08c379a000000000000000000000000000000000000000000000000000000000815260040161108290611d14565b60405180910390fd5b60008082815481106110a05761109f611c22565b5b906000526020600020906007020190508060060160009054906101000a900460ff16611101576040517f08c379a00000000000000000000000000000000000000000000000000000000081526004016110f890611e9d565b60405180910390fd5b8060010160009054906101000a900473ffffffffffffffffffffffffffffffffffffffff1673ffffffffffffffffffffffffffffffffffffffff163373ffffffffffffffffffffffffffffffffffffffff1614611193576040517f08c379a000000000000000000000000000000000000000000000000000000000815260040161118a90611f09565b60405180910390fd5b8060060160019054906101000a900460ff16156111e5576040517f08c379a00000000000000000000000000000000000000000000000000000000081526004016111dc90611f75565b60405180910390fd5b6000816003015482600201546111fb9190611b9b565b905080341015611240576040517f08c379a000000000000000000000000000000000000000000000000000000000815260040161123790611fe1565b60405180910390fd5b60018260060160016101000a81548160ff0219169083151502179055508160060160029054906101000a900473ffffffffffffffffffffffffffffffffffffffff1673ffffffffffffffffffffffffffffffffffffffff166108fc829081150290604051600060405180830381858888f193505050501580156112c7573d6000803e3d6000fd5b50600a600160008460010160009054906101000a900473ffffffffffffffffffffffffffffffffffffffff1673ffffffffffffffffffffffffffffffffffffffff1673ffffffffffffffffffffffffffffffffffffffff168152602001908152602001600020600082825461133c9190611b9b565b925050819055506002600160008460060160029054906101000a900473ffffffffffffffffffffffffffffffffffffffff1673ffffffffffffffffffffffffffffffffffffffff1673ffffffffffffffffffffffffffffffffffffffff16815260200190815260200160002060008282546113b79190611b9b565b925050819055507f5ce50a07a3af3526ad8d7b4bc030e16795907fb9faf33bc407cb01666373a5d9833383426040516113f39493929190611e0c565b60405180910390a17f807eaea65cf841b0d8273f323a8e905510a38e47bad5a86436548f169a1fbe2c8260010160009054906101000a900473ffffffffffffffffffffffffffffffffffffffff16600160008560010160009054906101000a900473ffffffffffffffffffffffffffffffffffffffff1673ffffffffffffffffffffffffffffffffffffffff1673ffffffffffffffffffffffffffffffffffffffff168152602001908152602001600020546040516114b3929190612001565b60405180910390a17f807eaea65cf841b0d8273f323a8e905510a38e47bad5a86436548f169a1fbe2c8260060160029054906101000a900473ffffffffffffffffffffffffffffffffffffffff16600160008560060160029054906101000a900473ffffffffffffffffffffffffffffffffffffffff1673ffffffffffffffffffffffffffffffffffffffff1673ffffffffffffffffffffffffffffffffffffffff16815260200190815260200160002054604051611573929190612001565b60405180910390a1505050565b60405180610120016040528060008152602001600073ffffffffffffffffffffffffffffffffffffffff16815260200160008152602001600081526020016000815260200160008152602001600015158152602001600015158152602001600073ffffffffffffffffffffffffffffffffffffffff1681525090565b600080fd5b6000819050919050565b61161481611601565b811461161f57600080fd5b50565b6000813590506116318161160b565b92915050565b6000806040838503121561164e5761164d6115fc565b5b600061165c85828601611622565b925050602061166d85828601611622565b9150509250929050565b600073ffffffffffffffffffffffffffffffffffffffff82169050919050565b60006116a282611677565b9050919050565b6116b281611697565b81146116bd57600080fd5b50565b6000813590506116cf816116a9565b92915050565b6000602082840312156116eb576116ea6115fc565b5b60006116f9848285016116c0565b91505092915050565b600081519050919050565b600082825260208201905092915050565b6000819050602082019050919050565b61173781611601565b82525050565b61174681611697565b82525050565b60008115159050919050565b6117618161174c565b82525050565b6101208201600082015161177e600085018261172e565b506020820151611791602085018261173d565b5060408201516117a4604085018261172e565b5060608201516117b7606085018261172e565b5060808201516117ca608085018261172e565b5060a08201516117dd60a085018261172e565b5060c08201516117f060c0850182611758565b5060e082015161180360e0850182611758565b5061010082015161181861010085018261173d565b50505050565b600061182a8383611767565b6101208301905092915050565b6000602082019050919050565b600061184f82611702565b611859818561170d565b93506118648361171e565b8060005b8381101561189557815161187c888261181e565b975061188783611837565b925050600181019050611868565b5085935050505092915050565b600060208201905081810360008301526118bc8184611844565b905092915050565b6000602082840312156118da576118d96115fc565b5b60006118e884828501611622565b91505092915050565b6118fa81611601565b82525050565b61190981611697565b82525050565b6119188161174c565b82525050565b600061012082019050611934600083018c6118f1565b611941602083018b611900565b61194e604083018a6118f1565b61195b60608301896118f1565b61196860808301886118f1565b61197560a08301876118f1565b61198260c083018661190f565b61198f60e083018561190f565b61199d610100830184611900565b9a9950505050505050505050565b60006020820190506119c060008301846118f1565b92915050565b60006020820190506119db600083018461190f565b92915050565b600082825260208201905092915050565b7f4d6f6e746f206465626520736572206d61796f72206120300000000000000000600082015250565b6000611a286018836119e1565b9150611a33826119f2565b602082019050919050565b60006020820190508181036000830152611a5781611a1b565b9050919050565b7f506c617a6f20646562652073657220706f73697469766f000000000000000000600082015250565b6000611a946017836119e1565b9150611a9f82611a5e565b602082019050919050565b60006020820190508181036000830152611ac381611a87565b9050919050565b7f4e487b7100000000000000000000000000000000000000000000000000000000600052601160045260246000fd5b6000611b0482611601565b9150611b0f83611601565b9250828202611b1d81611601565b91508282048414831517611b3457611b33611aca565b5b5092915050565b7f4e487b7100000000000000000000000000000000000000000000000000000000600052601260045260246000fd5b6000611b7582611601565b9150611b8083611601565b925082611b9057611b8f611b3b565b5b828204905092915050565b6000611ba682611601565b9150611bb183611601565b9250828201905080821115611bc957611bc8611aca565b5b92915050565b600060a082019050611be460008301886118f1565b611bf16020830187611900565b611bfe60408301866118f1565b611c0b60608301856118f1565b611c1860808301846118f1565b9695505050505050565b7f4e487b7100000000000000000000000000000000000000000000000000000000600052603260045260246000fd5b6000611c5c82611601565b91507fffffffffffffffffffffffffffffffffffffffffffffffffffffffffffffffff8203611c8e57611c8d611aca565b5b600182019050919050565b7f4e487b7100000000000000000000000000000000000000000000000000000000600052604160045260246000fd5b7f494420696e76616c69646f000000000000000000000000000000000000000000600082015250565b6000611cfe600b836119e1565b9150611d0982611cc8565b602082019050919050565b60006020820190508181036000830152611d2d81611cf1565b9050919050565b7f59612066696e616e636961646f00000000000000000000000000000000000000600082015250565b6000611d6a600d836119e1565b9150611d7582611d34565b602082019050919050565b60006020820190508181036000830152611d9981611d5d565b9050919050565b7f4d6f6e746f20696e636f72726563746f00000000000000000000000000000000600082015250565b6000611dd66010836119e1565b9150611de182611da0565b602082019050919050565b60006020820190508181036000830152611e0581611dc9565b9050919050565b6000608082019050611e2160008301876118f1565b611e2e6020830186611900565b611e3b60408301856118f1565b611e4860608301846118f1565b95945050505050565b7f41756e206e6f2066696e616e636961646f000000000000000000000000000000600082015250565b6000611e876011836119e1565b9150611e9282611e51565b602082019050919050565b60006020820190508181036000830152611eb681611e7a565b9050919050565b7f536f6c6f20736f6c69636974616e746500000000000000000000000000000000600082015250565b6000611ef36010836119e1565b9150611efe82611ebd565b602082019050919050565b60006020820190508181036000830152611f2281611ee6565b9050919050565b7f59612070616761646f0000000000000000000000000000000000000000000000600082015250565b6000611f5f6009836119e1565b9150611f6a82611f29565b602082019050919050565b60006020820190508181036000830152611f8e81611f52565b9050919050565b7f4d6f6e746f20696e737566696369656e74650000000000000000000000000000600082015250565b6000611fcb6012836119e1565b9150611fd682611f95565b602082019050919050565b60006020820190508181036000830152611ffa81611fbe565b9050919050565b60006040820190506120166000830185611900565b61202360208301846118f1565b939250505056fea2646970667358221220af1e089d4d1600ee7ea64aded3e67af2d0e3331d3ee5ecfdf56f8e19fa64550f64736f6c63430008110033",
  "linkReferences": {},
  "deployedLinkReferences": {}
}